:020000040800F2
:1000000088080020450200088102000883020008D9
:10001000850200088702000889020008000000002D
:100020000000000000000000000000008B0200083B
:100030008D020008000000008F02000891020008F5
:10004000930200089302000893020008930200083C
:10005000930200089302000893020008930200082C
:10006000930200089302000893020008930200081C
:10007000930200089302000893020008930200080C
:1000800093020008930200089302000893020008FC
:1000900093020008930200089302000893020008EC
:1000A00093020008930200089302000893020008DC
:1000B00093020008930200089302000893020008CC
:1000C00093020008930200089302000893020008BC
:1000D00093020008930200089302000893020008AC
:1000E000930200089302000893020008930200089C
:1000F000930200089302000893020008930200088C
:10010000930200089302000893020008930200087B
:10011000930200089302000893020008930200086B
:10012000930200089302000893020008930200085B
:10013000930200089302000893020008930200084B
:10014000930200089302000893020008930200083B
:10015000930200089302000893020008930200082B
:10016000930200089302000893020008930200081B
:1001700093020008930200089302000800000000A8
:10018000930200089302000800F002F800F04AF819
:100190000AA090E8000C82448344AAF10107DA45E2
:1001A00001D100F03FF8AFF2090EBAE80F0013F0EA
:1001B000010F18BFFB1A43F001031847F80E0000A7
:1001C000180F0000103A24BF78C878C1FAD8520737
:1001D00024BF30C830C144BF04680C6070470000C1
:1001E0000023002400250026103A28BF78C1FBD840
:1001F000520728BF30C148BF0B607047642900F028
:10020000AD80002070471FB500F04EFF00F04AFAA5
:1002100004000020002100F031FF401C60601FBD81
:1002200010B510BD00F018FA1146FFF7ECFF00F012
:10023000D5FC00F049FA03B4FFF7F2FF03BC00F06D
:100240008DFA000016481749174B99423CBF50F8E9
:10025000042B41F8042BF8D314494FF000028B42D1
:1002600038BF43F8042BFAD3DFF84400016841F4A7
:1002700070010160BFF34F8FBFF36F8F0D480047D0
:10028000FEE7FEE7FEE7FEE7FEE7FEE7FEE7FEE746
:10029000FEE7FEE708480949094A0A4B7047000093
:1002A000E4110008000000207800002088080020E9
:1002B00088ED00E0890100088802002088080020FD
:1002C00088040020880400200FB41CB5084B06AA3F
:1002D0007B4469460090059800F00FF90446002021
:1002E000694600F01DF920461CBC5DF814FB0000B7
:1002F0004D0200002DE9F0410E4604460020206228
:100300002046E168884730B3252805D0D4E901218B
:100310009047206A401CF2E7E168204600278847A2
:10032000050018D0A5F14100192802D820354FF456
:1003300000673246294620462760FFF75FFF40B13D
:10034000012804D0F61D26F007060836D8E7361D2A
:10035000D6E72846DAE7206ABDE8F0812DE9F041CA
:100360000646002410687529314616A510D0AFF353
:100370000080002802DA404213A507E031688A07AE
:1003800001D512A502E0490704D511A5012401E019
:10039000AFF3008000210A2206F1240709E0B0FB38
:1003A000F2FCB0FBF2F302FB1C003030785418462C
:1003B000491C0028F3D123462A463046BDE8F041C7
:1003C00000F03CB8000000002D0000002B000000F1
:1003D0002000000070B5064600F02CF804680546C1
:1003E00030460A22002100F0A0F82C6070BD10B544
:1003F000431C02E010F8011B71B18107FAD14FF0E4
:10040000013202C88C1A8C4314EAC211F9D0C01A06
:100410000A0603D0C01E10BDC01A10BD0A0401D0C8
:10042000801E10BD0902FCD0401E10BD70477047F1
:100430007047000000487047280200202DE9F0476F
:100440000D4699469246044600F124080168880644
:1004500004D5E06921F01001216000E00120A842EC
:1004600001DD471B00E00027A1697A1902EB0900B2
:10047000081AA0612078C00602D42046AFF300809D
:10048000002608E0D4E901211AF806009047206A06
:10049000401C761C20624E45F4DB2078C0060AD54D
:1004A0002046AFF3008006E0D4E9012130209047D8
:1004B000206A401C2062381EA7F10107F4DC07E027
:1004C000D4E9012118F805009047206A401C2062F9
:1004D000281EA5F10105F3DC2046AFF3008020784B
:1004E000000602D50220BDE8F0870120FBE70000EE
:1004F00001694A1C02610878704700B58FB0CDE9E8
:1005000001310021059105497944CDE903101146D7
:100510006846FFF7EFFE0FB000BD0000E5FFFFFFEC
:100520000A6802F8010B0A6070472DE9F04791460E
:100530000F4680460446002614F8015B2DB100F0FA
:1005400031F80068405DC007F6D12B2D02D02D2D6B
:1005500018D0641E4A463946204600F02BF827B1D1
:100560003968A14201D1C7F800804FF0020471053B
:100570000BD54042002803DDFFF75CFF0460A007B5
:10058000BDE8F08746F48066E4E70028F8DAFFF774
:1005900051FF04606FF00040F2E700000048704730
:1005A0002802002010B500F07DF8001D10BD00BF2E
:1005B000CD0A00002DE9F05F824615468B460027E4
:1005C0000AF10104B9460078302801D09DB113E04A
:1005D00014F8010B0127782803D0582801D045B121
:1005E0000AE00DB1102D07D1002714F8010B1025DA
:1005F00002E0082500E00A250026B0460EE005FBD3
:10060000080005FB06F101271FFA80F801EB1046F0
:10061000B6F5803F00D3B94614F8010B294600F027
:1006200045F80028EBDABBF1000F05D00FB1641ECE
:1006300000E05446CBF80040B9F1000F06D0FFF7B8
:10064000F9FE02210160C81E00F003B848EA064026
:10065000FAE730BCBDE8C09F7546FFF79FFFAE4686
:1006600005006946534620F00700854618B020B5BE
:10067000FFF710FEBDE820404FF000064FF00007E6
:100680004FF000084FF0000B21F00701AC46ACE83A
:10069000C009ACE8C009ACE8C009ACE8C0098D46A7
:1006A0007047000000487047480200203A2800D2F6
:1006B000303820F02002412A01D3A2F137008842CD
:1006C00001D34FF0FF30704710B50446AFF3008000
:1006D0002046BDE81040FFF7AEBD00004FF0013CE2
:1006E00050F8042B51F8043B9A4221D1A2EB0C03A1
:1006F000934313EACC1317D150F8042B51F8043B61
:100700009A4215D1A2EB0C03934313EACC130BD1FD
:1007100050F8042B51F8043B9A4209D1A2EB0C0388
:10072000934313EACC13DBD04FF00000704700BFB7
:10073000D01A01BAB1FA81F101F0180122FA01F0E0
:10074000CB40C1F12001DBB2C0B2C01A2CFA01F3D8
:10075000D11A914311EAC311E6D17047014918201B
:10076000ABBEFEE7260002007047000000204FF0FD
:1007700080414862486305E04FF08040406B08B11B
:10078000FF2070474FF08040406A02498842F3D30F
:100790000020F6E7A08601005E49096821F0070104
:1007A0005C4A11601146096841F0020111605A4922
:1007B000096841F48071584A116000BF56490968C0
:1007C00001F480610029F9D010205349496821F0D3
:1007D000F851514A51601146496841EA006151603F
:1007E0001146096821F08071116000BF4A4909680B
:1007F00001F00071B1F1007FF8D04749C96821F0DC
:100800000301454AD1601146C96841F00201D16037
:100810001146C96821F4FE4141F4A051D16011464E
:10082000C96821F0700141F01001D1601146C9681A
:1008300021F0C061D1601146C96841F08071D1607A
:100840001146096841F08071116000BF32490968A2
:1008500001F000710029F9D02F49896821F00301C6
:100860002D4A91601146896841F00301916000BFF3
:100870002949896801F00C010C29F9D126498968B8
:1008800021F0F001244A91601146896821F4E06169
:1008900091601146896821F46051916011460968A0
:1008A00021F08061116000BF1B49096801F080617F
:1008B000B1F1806FF8D01849096921F4FE41164A58
:1008C00011611146096941F4C0511161114609696C
:1008D00041F4003111611146096941F4803111611F
:1008E0001146096841F08061116000BF0A4909683A
:1008F00001F080610029F9D007498831096821F4A5
:100900004001054AC2F888101146096E41F40011F1
:100910001166704700200240001002402148C06C60
:1009200040F001001F49C8640846806D40F0010096
:1009300088654FF09040006820F003004FF0904130
:1009400008600846006840F0020008600846006A37
:1009500040F0010008624F20C900886208464069E3
:1009600040F0010048610846006A20F0010008627A
:100970000846806920F0030088610846806940F0DD
:10098000010088610846006A20F0020008620846FB
:10099000006A20F0080008620846006A40F0010082
:1009A00008627047001002401A48C06C40F008000E
:1009B0001849C8641848006820F470501649086047
:1009C0000846006840F42050086013482030006852
:1009D00040F0EE601049203108600F480830006890
:1009E00040F470500C4908310860081D006820F47C
:1009F0007050091D08600846006840F4A050086067
:100A00000548001D006820F060000349091D0860CA
:100A10007047000000100240000C004800B50D486F
:100A2000806D40F400300B4988650A4888300068C2
:100A300020F00C00C1F888000846D0F8880040F08B
:100A40000400C1F88800FFF7AFFF034800F010F87A
:100A500000BD0000001002400044004064224243F8
:100A60000723B2FBF3F100BF4A1E111EFCD17047F1
:100A7000016821F001010160016821F0102101608D
:100A8000016821F400410160416821F44051416056
:100A900042F28D01C160016841F00C0101601E4904
:100AA00088421BD1016841F020010160016821F0FA
:100AB00040010160016821F010010160016821F02E
:100AC00080010160016821F480710160016821F0FA
:100AD00040010160016821F0010101600F49884275
:100AE00009D1016A41F0400101620D49096841F0F4
:100AF000C0010B4A1160016841F00101016000BFB3
:100B0000C16901F400110029FAD000BFC16901F4E4
:100B100080010029FAD07047004C0040004400409A
:100B200008380140014600BFC86900F020000028D5
:100B3000FAD0888CC0B27047F0B504460E4617460E
:100B400000250CE000BFE06900F080000028FAD02A
:100B5000705D20854FF49670FFF780FF6D1CBD42DD
:100B6000F0D300BFE06900F040000028FAD0E0694F
:100B700020F04000E061F0BD10B50446224606A119
:100B80000648FFF7A1FB06490860084603490268CA
:100B90000448FFF7D1FF10BD25640900780000204C
:100BA0006C0000200044004010B5044600200949B4
:100BB00008700948FFF7B6FF064908700648FFF7B6
:100BC000B1FF04480078A04201D1FF2010BD0020F1
:100BD000FCE700006B00002000440040FFF7DCFD54
:100BE000FFF71CFFFFF79AFE4FF08040006840F0CF
:100BF00001004FF0804108600622B4A1B548FFF71C
:100C00009BFFFFF7B3FD10B9FF20B349087019E04F
:100C1000B248FFF7ECFB04462246B049AD48FFF767
:100C20008BFF5920FFF7C0FF28B1FFF79FFDC0439E
:100C3000A949087006E01422A9A1A648FFF77CFF85
:100C400000BFFEE7A44800780028E1D1A948FFF7DB
:100C5000CEFB04462246A7499E48FFF76DFF1022AF
:100C6000A5A19C48FFF768FFA7480068FFF784FF2D
:100C70000222A6A19748FFF75FFF1022A4A1954882
:100C8000FFF75AFFA04800686430FFF775FF0222A3
:100C90009EA19048FFF750FF00BF00208E490870CA
:100CA0009F4908609F48FFF7A2FB044622469D49E2
:100CB0008848FFF741FF5920FFF776FF00283AD018
:100CC000172299A18348FFF737FF00F0AFF9944945
:100CD000086008460068322805DB0846006842F2D2
:100CE000DE61884223DDFF207B490870322294A117
:100CF0007848FFF721FF16E000F098F9884908606E
:100D000008460068322805DB0846006842F2DE61CA
:100D1000884205DD32228AA16E48FFF70DFF02E00E
:100D200000206D4908706C4800780028E4D17C48A8
:100D300000687549086010226FA16648FFF7FCFE45
:100D400071480068FFF718FF022270A16148FFF7A1
:100D5000F3FE10226EA15F48FFF7EEFE6A480068BE
:100D60006430FFF709FF022268A15A48FFF7E4FE4A
:100D7000142280A15748FFF7DFFE00BF5548FFF758
:100D8000D1FE0D28FAD10F2280A15248FFF7D4FEE0
:100D900000204FF080414862486300BF04E000211A
:100DA0007E4A42F82010401C6428F8DB4FF0804057
:100DB000406B7B49086000BF4FF08040406B784932
:100DC00009688842F8D04FF08040406B7549086050
:100DD00000BF4FF08040406B724909688842F8D0EC
:100DE0004FF08040406B70490860084600686D49CC
:100DF0000968401A44490968401A684951F82000B6
:100E0000401C69490968674A1268891A3E4A126893
:100E1000891A624A42F82100012035E062490968D6
:100E20005F4A116000BF4FF08041496B5C4A126815
:100E30009142F8D04FF08041496B5A4A116000BF8F
:100E40004FF08041496B574A12689142F8D04FF0F9
:100E50008041496B544A116011460968514A126831
:100E6000891A294A1268891A4C4A52F82110491CD9
:100E70004D4A12684B4B1B68D21A234B1B68D21A7F
:100E8000464B43F82210401CB0F57A7FC6DB642144
:100E9000424800F09FF8202244A10E48FFF74CFE84
:100EA000FF204B4908705920FFF77EFE10B9002043
:100EB000474908704648007800287FF4EEAE1222B9
:100EC00007A10448FFF738FE00BFFEE70D0A0D0A30
:100ED0000000000000440040680000200F000020D7
:100EE00050726F6772616D207465726D696E6174A6
:100EF00065640000000000204C6F776572204C692B
:100F00006D6974203D200000700000200D0A000073
:100F10005570706572204C696D6974203D20000029
:100F2000740000202E000020456E746572206E65EE
:100F300077206C6F776572206C696D69743A200058
:100F4000496E76616C6964206C696D69742C2065EA
:100F50006E74657220612076616C756520626574BF
:100F60007765656E20353020616E64203939353003
:100F70003A200000507265737320456E74657220CC
:100F8000746F2053746172740000000053746172B6
:100F9000742070726F6772616D0D0A0098000020F6
:100FA0005C000020640000206000002050726F6729
:100FB00072616D20636F6D706C6574652E205920B1
:100FC000746F20726573746172740A0D0000000002
:100FD0006900002070B505460E46002414E055F85F
:100FE000240080B155F8243009480068021909A18D
:100FF0000B48FFF769F90B49086008460849026881
:101000000948FFF799FD641C701EA042E7DC70BD23
:101010007000002025643A202564090D0A000000B4
:10102000780000206C0000200044004010B588B01B
:10103000002003E000210DF80010401C2028F9DBFF
:1010400000240EE00B48FFF76DFD0B4908700846C1
:1010500000780D2800D106E0074800780DF804005C
:10106000641C202CEEDB00BF6846FFF7B3F908B024
:1010700010BD0000004400406B00002010B50029A6
:101080000AD00878002807D005487844FFF726FBE7
:10109000002801D0002010BD0248784410BD000097
:1010A0004A000000420000004FF04070E1EE100ADC
:1010B00070470000E41100080000002078000000E4
:1010C000C40100085C12000878000020100800002D
:1010D000E00100081001000043000000F8FFFFFFDE
:1010E000004040404040404040404141414141403B
:1010F00040404040404040404040404040404040F0
:10110000400502020202020202020202020202027E
:101110000220202020202020202020020202020283
:1011200002029090909090901010101010101010DB
:1011300010101010101010101010101002020202E7
:10114000020288888888888808080808080808082B
:101150000808080808080808080808080202020227
:10116000400000000000000000000000000000003F
:10117000000000000000000000000000000000006F
:10118000000000000000000000000000000000005F
:10119000000000000000000000000000000000004F
:1011A000000000000000000000000000000000003F
:1011B000000000000000000000000000000000002F
:1011C000000000000000000000000000000000001F
:1011D000000000000000000000000000000000000F
:1011E00000000000504F53542073756363657373A0
:1011F0000D0A00504F5354206661696C7572652C5E
:10120000205920746F2074727920616761696E0DB6
:101210000A005920746F206368616E6765206C69ED
:101220006D6974732C20616E79206F74686572200B
:101230006B657920746F206B6565700D0A00000086
:101240000000000000000000000000000000FF009F
:0C12500000000000B603000000000000D9
:040000050800018965
:00000001FF
